{
  "contractName": "BankCRM",
  "abi": [
    {
      "inputs": [],
      "stateMutability": "nonpayable",
      "type": "constructor"
    },
    {
      "anonymous": false,
      "inputs": [
        {
          "indexed": true,
          "internalType": "uint256",
          "name": "id",
          "type": "uint256"
        },
        {
          "indexed": false,
          "internalType": "string",
          "name": "name",
          "type": "string"
        },
        {
          "indexed": false,
          "internalType": "string",
          "name": "email",
          "type": "string"
        },
        {
          "indexed": false,
          "internalType": "uint256",
          "name": "balance",
          "type": "uint256"
        }
      ],
      "name": "CustomerAdded",
      "type": "event"
    },
    {
      "anonymous": false,
      "inputs": [
        {
          "indexed": true,
          "internalType": "uint256",
          "name": "id",
          "type": "uint256"
        }
      ],
      "name": "CustomerRemoved",
      "type": "event"
    },
    {
      "anonymous": false,
      "inputs": [
        {
          "indexed": true,
          "internalType": "uint256",
          "name": "id",
          "type": "uint256"
        },
        {
          "indexed": false,
          "internalType": "string",
          "name": "name",
          "type": "string"
        },
        {
          "indexed": false,
          "internalType": "string",
          "name": "email",
          "type": "string"
        },
        {
          "indexed": false,
          "internalType": "uint256",
          "name": "balance",
          "type": "uint256"
        }
      ],
      "name": "CustomerUpdated",
      "type": "event"
    },
    {
      "anonymous": false,
      "inputs": [
        {
          "indexed": true,
          "internalType": "uint256",
          "name": "id",
          "type": "uint256"
        },
        {
          "indexed": false,
          "internalType": "uint256",
          "name": "amount",
          "type": "uint256"
        }
      ],
      "name": "Deposit",
      "type": "event"
    },
    {
      "anonymous": false,
      "inputs": [
        {
          "indexed": true,
          "internalType": "address",
          "name": "previousOwner",
          "type": "address"
        },
        {
          "indexed": true,
          "internalType": "address",
          "name": "newOwner",
          "type": "address"
        }
      ],
      "name": "OwnershipTransferred",
      "type": "event"
    },
    {
      "anonymous": false,
      "inputs": [
        {
          "indexed": true,
          "internalType": "uint256",
          "name": "id",
          "type": "uint256"
        },
        {
          "indexed": false,
          "internalType": "uint256",
          "name": "amount",
          "type": "uint256"
        }
      ],
      "name": "Withdraw",
      "type": "event"
    },
    {
      "inputs": [],
      "name": "customerCount",
      "outputs": [
        {
          "internalType": "uint256",
          "name": "",
          "type": "uint256"
        }
      ],
      "stateMutability": "view",
      "type": "function",
      "constant": true
    },
    {
      "inputs": [],
      "name": "owner",
      "outputs": [
        {
          "internalType": "address",
          "name": "",
          "type": "address"
        }
      ],
      "stateMutability": "view",
      "type": "function",
      "constant": true
    },
    {
      "inputs": [
        {
          "internalType": "string",
          "name": "_name",
          "type": "string"
        },
        {
          "internalType": "string",
          "name": "_email",
          "type": "string"
        },
        {
          "internalType": "uint256",
          "name": "_initialBalance",
          "type": "uint256"
        }
      ],
      "name": "addCustomer",
      "outputs": [
        {
          "internalType": "uint256",
          "name": "",
          "type": "uint256"
        }
      ],
      "stateMutability": "nonpayable",
      "type": "function"
    },
    {
      "inputs": [
        {
          "internalType": "uint256",
          "name": "_id",
          "type": "uint256"
        }
      ],
      "name": "getCustomer",
      "outputs": [
        {
          "internalType": "uint256",
          "name": "id",
          "type": "uint256"
        },
        {
          "internalType": "string",
          "name": "name",
          "type": "string"
        },
        {
          "internalType": "string",
          "name": "email",
          "type": "string"
        },
        {
          "internalType": "uint256",
          "name": "balance",
          "type": "uint256"
        },
        {
          "internalType": "bool",
          "name": "exists",
          "type": "bool"
        }
      ],
      "stateMutability": "view",
      "type": "function",
      "constant": true
    },
    {
      "inputs": [
        {
          "internalType": "uint256",
          "name": "_id",
          "type": "uint256"
        },
        {
          "internalType": "string",
          "name": "_name",
          "type": "string"
        },
        {
          "internalType": "string",
          "name": "_email",
          "type": "string"
        }
      ],
      "name": "updateCustomer",
      "outputs": [],
      "stateMutability": "nonpayable",
      "type": "function"
    },
    {
      "inputs": [
        {
          "internalType": "uint256",
          "name": "_id",
          "type": "uint256"
        }
      ],
      "name": "removeCustomer",
      "outputs": [],
      "stateMutability": "nonpayable",
      "type": "function"
    },
    {
      "inputs": [
        {
          "internalType": "uint256",
          "name": "_id",
          "type": "uint256"
        },
        {
          "internalType": "uint256",
          "name": "_amount",
          "type": "uint256"
        }
      ],
      "name": "depositToCustomer",
      "outputs": [],
      "stateMutability": "nonpayable",
      "type": "function"
    },
    {
      "inputs": [
        {
          "internalType": "uint256",
          "name": "_id",
          "type": "uint256"
        },
        {
          "internalType": "uint256",
          "name": "_amount",
          "type": "uint256"
        }
      ],
      "name": "withdrawFromCustomer",
      "outputs": [],
      "stateMutability": "nonpayable",
      "type": "function"
    },
    {
      "inputs": [
        {
          "internalType": "address",
          "name": "_newOwner",
          "type": "address"
        }
      ],
      "name": "transferOwnership",
      "outputs": [],
      "stateMutability": "nonpayable",
      "type": "function"
    },
    {
      "inputs": [
        {
          "internalType": "uint256",
          "name": "start",
          "type": "uint256"
        },
        {
          "internalType": "uint256",
          "name": "end",
          "type": "uint256"
        }
      ],
      "name": "listCustomers",
      "outputs": [
        {
          "components": [
            {
              "internalType": "uint256",
              "name": "id",
              "type": "uint256"
            },
            {
              "internalType": "string",
              "name": "name",
              "type": "string"
            },
            {
              "internalType": "string",
              "name": "email",
              "type": "string"
            },
            {
              "internalType": "uint256",
              "name": "balance",
              "type": "uint256"
            },
            {
              "internalType": "bool",
              "name": "exists",
              "type": "bool"
            }
          ],
          "internalType": "struct BankCRM.Customer[]",
          "name": "",
          "type": "tuple[]"
        }
      ],
      "stateMutability": "view",
      "type": "function",
      "constant": true
    }
  ],
  "bytecode": "0x608060405234801561001057600080fd5b50600080546001600160a01b0319163317815560015561114f806100356000396000f3fe608060405234801561001057600080fd5b506004361061009e5760003560e01c80638d85964c116100665780638d85964c1461011a5780638da5cb5b1461013b5780639757e8a314610166578063eb876f271461016f578063f2fde38b1461019357600080fd5b806302b5c3d7146100a35780631df6f5ef146100b857806336f8e439146100cb5780634c3b1b3e146100f457806376988d7614610107575b600080fd5b6100b66100b1366004610c68565b6101a6565b005b6100b66100c6366004610cd5565b61029a565b6100de6100d9366004610cd5565b6103ad565b6040516100eb9190610d3d565b60405180910390f35b6100b6610102366004610de4565b610678565b6100b6610115366004610cd5565b610742565b61012d610128366004610dfd565b6107f5565b6040519081526020016100eb565b60005461014e906001600160a01b031681565b6040516001600160a01b0390911681526020016100eb565b61012d60015481565b61018261017d366004610de4565b61090a565b6040516100eb959493929190610e6a565b6100b66101a1366004610eaf565b610aa5565b6000546001600160a01b031633146101d95760405162461bcd60e51b81526004016101d090610edf565b60405180910390fd5b60008381526002602052604090206004015460ff1661020a5760405162461bcd60e51b81526004016101d090610f03565b60008381526002602052604090206001016102258382610fb8565b506000838152600260208190526040909120016102428282610fb8565b50827fb577b43d4052f598ff38eb3421fa266b6b40ed2454fc166d9f7ec02b22a6eb2c8383600260008881526020019081526020016000206003015460405161028d93929190611078565b60405180910390a2505050565b6000546001600160a01b031633146102c45760405162461bcd60e51b81526004016101d090610edf565b60008281526002602052604090206004015460ff166102f55760405162461bcd60e51b81526004016101d090610f03565b60008281526002602052604090206003015481111561034d5760405162461bcd60e51b8152602060048201526014602482015273496e73756666696369656e742062616c616e636560601b60448201526064016101d0565b6000828152600260205260408120600301805483929061036e9084906110c4565b909155505060405181815282907f56ca301a9219608c91e7bcee90e083c19671d2cdcc96752c7af291cee5f9c8c8906020015b60405180910390a25050565b60606001548211156103bf5760015491505b600183101580156103da57506103d68260016110d7565b8311155b6104165760405162461bcd60e51b815260206004820152600d60248201526c496e76616c69642072616e676560981b60448201526064016101d0565b600061042284846110c4565b61042d9060016110d7565b905060008167ffffffffffffffff81111561044a5761044a610bc5565b6040519080825280602002602001820160405280156104af57816020015b61049c6040518060a00160405280600081526020016060815260200160608152602001600081526020016000151581525090565b8152602001906001900390816104685790505b5090506000855b85811161066b576000600260008381526020019081526020016000206040518060a0016040529081600082015481526020016001820180546104f790610f2f565b80601f016020809104026020016040519081016040528092919081815260200182805461052390610f2f565b80156105705780601f1061054557610100808354040283529160200191610570565b820191906000526020600020905b81548152906001019060200180831161055357829003601f168201915b5050505050815260200160028201805461058990610f2f565b80601f01602080910402602001604051908101604052809291908181526020018280546105b590610f2f565b80156106025780601f106105d757610100808354040283529160200191610602565b820191906000526020600020905b8154815290600101906020018083116105e557829003601f168201915b50505091835250506003820154602082015260049091015460ff1615156040909101528451909150819085908590811061063e5761063e6110ea565b6020026020010181905250828061065490611100565b93505050808061066390611100565b9150506104b6565b5090925050505b92915050565b6000546001600160a01b031633146106a25760405162461bcd60e51b81526004016101d090610edf565b60008181526002602052604090206004015460ff166106d35760405162461bcd60e51b81526004016101d090610f03565b6000818152600260205260408120818155906106f26001830182610b6f565b610700600283016000610b6f565b506000600382018190556004909101805460ff1916905560405182917f1dfdf300f987cd347ab4c3c7671c9cf0ce12b834341f7940b4c2b9c01326ee9e91a250565b6000546001600160a01b0316331461076c5760405162461bcd60e51b81526004016101d090610edf565b60008281526002602052604090206004015460ff1661079d5760405162461bcd60e51b81526004016101d090610f03565b600082815260026020526040812060030180548392906107be9084906110d7565b909155505060405181815282907fa3af609bf46297028ce551832669030f9effef2b02606d02cbbcc40fe6b47c55906020016103a1565b600080546001600160a01b031633146108205760405162461bcd60e51b81526004016101d090610edf565b6001805490600061083083611100565b90915550506040805160a081018252600180548083526020808401898152848601899052606085018890526080850184905260009283526002909152939020825181559251919291908201906108869082610fb8565b506040820151600282019061089b9082610fb8565b50606082015160038201556080909101516004909101805460ff19169115159190911790556001546040517f1bf18a1aa4f6fc03f0abac7ddf21131ca984a4c8239fe5050523a3a070f9ad61906108f790879087908790611078565b60405180910390a2506001549392505050565b60006060806000806000600260008881526020019081526020016000206040518060a00160405290816000820154815260200160018201805461094c90610f2f565b80601f016020809104026020016040519081016040528092919081815260200182805461097890610f2f565b80156109c55780601f1061099a576101008083540402835291602001916109c5565b820191906000526020600020905b8154815290600101906020018083116109a857829003601f168201915b505050505081526020016002820180546109de90610f2f565b80601f0160208091040260200160405190810160405280929190818152602001828054610a0a90610f2f565b8015610a575780601f10610a2c57610100808354040283529160200191610a57565b820191906000526020600020905b815481529060010190602001808311610a3a57829003601f168201915b5050509183525050600382015460208083019190915260049092015460ff161515604091820152825191830151908301516060840151608090940151929b919a509850919650945092505050565b6000546001600160a01b03163314610acf5760405162461bcd60e51b81526004016101d090610edf565b6001600160a01b038116610b145760405162461bcd60e51b815260206004820152600c60248201526b5a65726f206164647265737360a01b60448201526064016101d0565b600080546040516001600160a01b03808516939216917f8be0079c531659141344cd1fd0a4f28419497f9722a3daafe3b4186f6b6457e091a3600080546001600160a01b0319166001600160a01b0392909216919091179055565b508054610b7b90610f2f565b6000825580601f10610b8b575050565b601f016020900490600052602060002090810190610ba99190610bac565b50565b5b80821115610bc15760008155600101610bad565b5090565b634e487b7160e01b600052604160045260246000fd5b600082601f830112610bec57600080fd5b813567ffffffffffffffff80821115610c0757610c07610bc5565b604051601f8301601f19908116603f01168101908282118183101715610c2f57610c2f610bc5565b81604052838152866020858801011115610c4857600080fd5b836020870160208301376000602085830101528094505050505092915050565b600080600060608486031215610c7d57600080fd5b83359250602084013567ffffffffffffffff80821115610c9c57600080fd5b610ca887838801610bdb565b93506040860135915080821115610cbe57600080fd5b50610ccb86828701610bdb565b9150509250925092565b60008060408385031215610ce857600080fd5b50508035926020909101359150565b6000815180845260005b81811015610d1d57602081850181015186830182015201610d01565b506000602082860101526020601f19601f83011685010191505092915050565b60006020808301818452808551808352604092508286019150828160051b87010184880160005b83811015610dd657603f19898403018552815160a08151855288820151818a870152610d9282870182610cf7565b9150508782015185820389870152610daa8282610cf7565b606084810151908801526080938401511515939096019290925250509386019390860190600101610d64565b509098975050505050505050565b600060208284031215610df657600080fd5b5035919050565b600080600060608486031215610e1257600080fd5b833567ffffffffffffffff80821115610e2a57600080fd5b610e3687838801610bdb565b94506020860135915080821115610e4c57600080fd5b50610e5986828701610bdb565b925050604084013590509250925092565b85815260a060208201526000610e8360a0830187610cf7565b8281036040840152610e958187610cf7565b606084019590955250509015156080909101529392505050565b600060208284031215610ec157600080fd5b81356001600160a01b0381168114610ed857600080fd5b9392505050565b6020808252600a908201526927b7363c9037bbb732b960b11b604082015260600190565b60208082526012908201527110dd5cdd1bdb595c881b9bdd08199bdd5b9960721b604082015260600190565b600181811c90821680610f4357607f821691505b602082108103610f6357634e487b7160e01b600052602260045260246000fd5b50919050565b601f821115610fb357600081815260208120601f850160051c81016020861015610f905750805b601f850160051c820191505b81811015610faf57828155600101610f9c565b5050505b505050565b815167ffffffffffffffff811115610fd257610fd2610bc5565b610fe681610fe08454610f2f565b84610f69565b602080601f83116001811461101b57600084156110035750858301515b600019600386901b1c1916600185901b178555610faf565b600085815260208120601f198616915b8281101561104a5788860151825594840194600190910190840161102b565b50858210156110685787850151600019600388901b60f8161c191681555b5050505050600190811b01905550565b60608152600061108b6060830186610cf7565b828103602084015261109d8186610cf7565b915050826040830152949350505050565b634e487b7160e01b600052601160045260246000fd5b81810381811115610672576106726110ae565b80820180821115610672576106726110ae565b634e487b7160e01b600052603260045260246000fd5b600060018201611112576111126110ae565b506001019056fea2646970667358221220802f653f80efc0cde4d73620a2b29e8647fe470c17de340b852687b1754110ad64736f6c63430008110033",
  "immutableReferences": {},
  "source": "// SPDX-License-Identifier: MIT\r\npragma solidity ^0.8.17;\r\n\r\n/// @title BankCRM - إدارة عملاء بنك\r\n/// @notice عقد بسيط لإضافة/تعديل/حذف عملاء وإدارة أرصدة بسيطة بواسطة المالك\r\ncontract BankCRM {\r\n    address public owner;\r\n    uint256 public customerCount;\r\n\r\n    struct Customer {\r\n        uint256 id;\r\n        string name;\r\n        string email;\r\n        uint256 balance; // بالـ wei (أو وحدة يتم الاتفاق عليها)\r\n        bool exists;\r\n    }\r\n\r\n    mapping(uint256 => Customer) private customers;\r\n    mapping(address => uint256[]) private ownerCustomers; // إن رغبت بربط address بعملاء (اختياري)\r\n\r\n    event CustomerAdded(uint256 indexed id, string name, string email, uint256 balance);\r\n    event CustomerUpdated(uint256 indexed id, string name, string email, uint256 balance);\r\n    event CustomerRemoved(uint256 indexed id);\r\n    event Deposit(uint256 indexed id, uint256 amount);\r\n    event Withdraw(uint256 indexed id, uint256 amount);\r\n    event OwnershipTransferred(address indexed previousOwner, address indexed newOwner);\r\n\r\n    modifier onlyOwner() {\r\n        require(msg.sender == owner, \"Only owner\");\r\n        _;\r\n    }\r\n\r\n    constructor() {\r\n        owner = msg.sender;\r\n        customerCount = 0;\r\n    }\r\n\r\n    /// @notice إضافة عميل جديد\r\n    function addCustomer(string memory _name, string memory _email, uint256 _initialBalance) public onlyOwner returns (uint256) {\r\n        customerCount++;\r\n        customers[customerCount] = Customer({\r\n            id: customerCount,\r\n            name: _name,\r\n            email: _email,\r\n            balance: _initialBalance,\r\n            exists: true\r\n        });\r\n\r\n        emit CustomerAdded(customerCount, _name, _email, _initialBalance);\r\n        return customerCount;\r\n    }\r\n\r\n    /// @notice جلب بيانات عميل\r\n    function getCustomer(uint256 _id) public view returns (uint256 id, string memory name, string memory email, uint256 balance, bool exists) {\r\n        Customer memory c = customers[_id];\r\n        return (c.id, c.name, c.email, c.balance, c.exists);\r\n    }\r\n\r\n    /// @notice تحديث بيانات عميل (المالك فقط)\r\n    function updateCustomer(uint256 _id, string memory _name, string memory _email) public onlyOwner {\r\n        require(customers[_id].exists, \"Customer not found\");\r\n        customers[_id].name = _name;\r\n        customers[_id].email = _email;\r\n        emit CustomerUpdated(_id, _name, _email, customers[_id].balance);\r\n    }\r\n\r\n    /// @notice حذف عميل (المالك فقط)\r\n    function removeCustomer(uint256 _id) public onlyOwner {\r\n        require(customers[_id].exists, \"Customer not found\");\r\n        delete customers[_id];\r\n        emit CustomerRemoved(_id);\r\n    }\r\n\r\n    /// @notice إيداع لرصيد عميل (المالك فقط)\r\n    function depositToCustomer(uint256 _id, uint256 _amount) public onlyOwner {\r\n        require(customers[_id].exists, \"Customer not found\");\r\n        customers[_id].balance += _amount;\r\n        emit Deposit(_id, _amount);\r\n    }\r\n\r\n    /// @notice سحب من رصيد عميل (المالك فقط) — لا يقوم بتحويل ETH للمستفيد، فقط يسجل المبلغ\r\n    function withdrawFromCustomer(uint256 _id, uint256 _amount) public onlyOwner {\r\n        require(customers[_id].exists, \"Customer not found\");\r\n        require(customers[_id].balance >= _amount, \"Insufficient balance\");\r\n        customers[_id].balance -= _amount;\r\n        emit Withdraw(_id, _amount);\r\n    }\r\n\r\n    /// @notice تحويل ملكية العقد\r\n    function transferOwnership(address _newOwner) public onlyOwner {\r\n        require(_newOwner != address(0), \"Zero address\");\r\n        emit OwnershipTransferred(owner, _newOwner);\r\n        owner = _newOwner;\r\n    }\r\n\r\n    /// @notice الحصول على جميع عملاء ضمن نطاق id من start إلى end (للاستخدام في الواجهة)\r\n    function listCustomers(uint256 start, uint256 end) public view returns (Customer[] memory) {\r\n        if (end > customerCount) {\r\n            end = customerCount;\r\n        }\r\n        require(start >= 1 && start <= end+1, \"Invalid range\");\r\n\r\n        uint256 len = end - start + 1;\r\n        Customer[] memory list = new Customer[](len);\r\n        uint256 index = 0;\r\n        for (uint256 i = start; i <= end; i++) {\r\n            Customer memory c = customers[i];\r\n            // إذا تم حذف عميل، نُرجع صف بيانات فارغ (exists=false)\r\n            list[index] = c;\r\n            index++;\r\n        }\r\n        return list;\r\n    }\r\n}\r\n",
  "sourcePath": "C:\\Users\\USER\\BIOCKCHAIN_APP\\bank\\contracts\\BankCRM.sol",
  "compiler": {
    "name": "solc",
    "version": "0.8.17+commit.8df45f5f.Emscripten.clang"
  },
  "schemaVersion": "3.4.16",
  "updatedAt": "2025-12-04T17:37:16.249Z",
  "networkType": "ethereum",
  "devdoc": {
    "kind": "dev",
    "methods": {},
    "title": "BankCRM - إدارة عملاء بنك",
    "version": 1
  },
  "userdoc": {
    "kind": "user",
    "methods": {
      "addCustomer(string,string,uint256)": {
        "notice": "إضافة عميل جديد"
      },
      "depositToCustomer(uint256,uint256)": {
        "notice": "إيداع لرصيد عميل (المالك فقط)"
      },
      "getCustomer(uint256)": {
        "notice": "جلب بيانات عميل"
      },
      "listCustomers(uint256,uint256)": {
        "notice": "الحصول على جميع عملاء ضمن نطاق id من start إلى end (للاستخدام في الواجهة)"
      },
      "removeCustomer(uint256)": {
        "notice": "حذف عميل (المالك فقط)"
      },
      "transferOwnership(address)": {
        "notice": "تحويل ملكية العقد"
      },
      "updateCustomer(uint256,string,string)": {
        "notice": "تحديث بيانات عميل (المالك فقط)"
      },
      "withdrawFromCustomer(uint256,uint256)": {
        "notice": "سحب من رصيد عميل (المالك فقط) — لا يقوم بتحويل ETH للمستفيد، فقط يسجل المبلغ"
      }
    },
    "notice": "عقد بسيط لإضافة/تعديل/حذف عملاء وإدارة أرصدة بسيطة بواسطة المالك",
    "version": 1
  }
}